{
  "_format": "hh-sol-artifact-1",
  "contractName": "Library",
  "sourceName": "contracts/Library.sol",
  "abi": [
    {
      "anonymous": false,
      "inputs": [
        {
          "indexed": true,
          "internalType": "uint256",
          "name": "id",
          "type": "uint256"
        },
        {
          "indexed": false,
          "internalType": "address",
          "name": "borrower",
          "type": "address"
        }
      ],
      "name": "BookBorrowed",
      "type": "event"
    },
    {
      "anonymous": false,
      "inputs": [
        {
          "indexed": false,
          "internalType": "uint256",
          "name": "id",
          "type": "uint256"
        },
        {
          "indexed": false,
          "internalType": "address",
          "name": "borrower",
          "type": "address"
        }
      ],
      "name": "BookReturned",
      "type": "event"
    },
    {
      "anonymous": false,
      "inputs": [
        {
          "indexed": false,
          "internalType": "uint256",
          "name": "id",
          "type": "uint256"
        },
        {
          "indexed": false,
          "internalType": "string",
          "name": "title",
          "type": "string"
        }
      ],
      "name": "NewBookAdded",
      "type": "event"
    },
    {
      "anonymous": false,
      "inputs": [
        {
          "indexed": false,
          "internalType": "uint256",
          "name": "id",
          "type": "uint256"
        },
        {
          "indexed": false,
          "internalType": "uint256",
          "name": "copies",
          "type": "uint256"
        }
      ],
      "name": "NewCopiesAdded",
      "type": "event"
    },
    {
      "inputs": [
        {
          "internalType": "string",
          "name": "_title",
          "type": "string"
        },
        {
          "internalType": "uint256",
          "name": "_copies",
          "type": "uint256"
        }
      ],
      "name": "addBook",
      "outputs": [
        {
          "internalType": "uint256",
          "name": "bookIndex",
          "type": "uint256"
        }
      ],
      "stateMutability": "nonpayable",
      "type": "function"
    },
    {
      "inputs": [
        {
          "internalType": "uint256",
          "name": "_id",
          "type": "uint256"
        }
      ],
      "name": "borrowBook",
      "outputs": [],
      "stateMutability": "nonpayable",
      "type": "function"
    },
    {
      "inputs": [],
      "name": "getAllBooks",
      "outputs": [
        {
          "components": [
            {
              "internalType": "string",
              "name": "title",
              "type": "string"
            },
            {
              "internalType": "uint256",
              "name": "copies",
              "type": "uint256"
            },
            {
              "internalType": "address[]",
              "name": "borrowers",
              "type": "address[]"
            }
          ],
          "internalType": "struct Library.Book[]",
          "name": "",
          "type": "tuple[]"
        }
      ],
      "stateMutability": "view",
      "type": "function"
    },
    {
      "inputs": [],
      "name": "getAvailableBooks",
      "outputs": [
        {
          "components": [
            {
              "internalType": "uint256",
              "name": "id",
              "type": "uint256"
            },
            {
              "internalType": "string",
              "name": "title",
              "type": "string"
            }
          ],
          "internalType": "struct Library.AvailableBook[]",
          "name": "",
          "type": "tuple[]"
        }
      ],
      "stateMutability": "view",
      "type": "function"
    },
    {
      "inputs": [],
      "name": "owner",
      "outputs": [
        {
          "internalType": "address",
          "name": "",
          "type": "address"
        }
      ],
      "stateMutability": "view",
      "type": "function"
    },
    {
      "inputs": [
        {
          "internalType": "uint256",
          "name": "_id",
          "type": "uint256"
        }
      ],
      "name": "returnBook",
      "outputs": [],
      "stateMutability": "nonpayable",
      "type": "function"
    }
  ],
  "bytecode": "0x608060405234801561001057600080fd5b50336000806101000a81548173ffffffffffffffffffffffffffffffffffffffff021916908373ffffffffffffffffffffffffffffffffffffffff160217905550611fe7806100606000396000f3fe608060405234801561001057600080fd5b50600436106100625760003560e01c8063354528e814610067578063637a3872146100855780637e490a9e146100b55780638da5cb5b146100d1578063ca5140c9146100ef578063d6c084d91461010b575b600080fd5b61006f610129565b60405161007c91906118e6565b60405180910390f35b61009f600480360381019061009a91906113a1565b6102b8565b6040516100ac91906119e8565b60405180910390f35b6100cf60048036038101906100ca91906113f9565b61068e565b005b6100d9610949565b6040516100e691906118a9565b60405180910390f35b610109600480360381019061010491906113f9565b61096d565b005b610113610c3f565b60405161012091906118c4565b60405180910390f35b606060006001805480602002602001604051908101604052809291908181526020016000905b828210156102ab578382906000526020600020906003020160405180606001604052908160008201805461018290611c87565b80601f01602080910402602001604051908101604052809291908181526020018280546101ae90611c87565b80156101fb5780601f106101d0576101008083540402835291602001916101fb565b820191906000526020600020905b8154815290600101906020018083116101de57829003601f168201915b50505050508152602001600182015481526020016002820180548060200260200160405190810160405280929190818152602001828054801561029357602002820191906000526020600020905b8160009054906101000a900473ffffffffffffffffffffffffffffffffffffffff1673ffffffffffffffffffffffffffffffffffffffff1681526020019060010190808311610249575b5050505050815250508152602001906001019061014f565b5050505090508091505090565b60003373ffffffffffffffffffffffffffffffffffffffff1660008054906101000a900473ffffffffffffffffffffffffffffffffffffffff1673ffffffffffffffffffffffffffffffffffffffff1614610348576040517f08c379a000000000000000000000000000000000000000000000000000000000815260040161033f906119a8565b60405180910390fd5b6000821161038b576040517f08c379a0000000000000000000000000000000000000000000000000000000008152600401610382906119c8565b60405180910390fd5b60005b6001805490508110156105365784846040516020016103ae929190611879565b60405160208183030381529060405280519060200120600182815481106103fe577f4e487b7100000000000000000000000000000000000000000000000000000000600052603260045260246000fd5b906000526020600020906003020160000160405160200161041f9190611892565b604051602081830303815290604052805190602001201415610523578260018281548110610476577f4e487b7100000000000000000000000000000000000000000000000000000000600052603260045260246000fd5b9060005260206000209060030201600101546104929190611b7f565b600182815481106104cc577f4e487b7100000000000000000000000000000000000000000000000000000000600052603260045260246000fd5b9060005260206000209060030201600101819055507f4e7fbcc359970a72cdad1ece1300b8b8d9a1a63b3e0fcce89c4db27bcb4c2cf88184604051610512929190611a5e565b60405180910390a180915050610687565b808061052e90611cb9565b91505061038e565b506001808160018154018082558091505003906000526020600020905050838360018080805490506105689190611bd5565b8154811061059f577f4e487b7100000000000000000000000000000000000000000000000000000000600052603260045260246000fd5b906000526020600020906003020160000191906105bd929190611285565b508160018080805490506105d19190611bd5565b81548110610608577f4e487b7100000000000000000000000000000000000000000000000000000000600052603260045260246000fd5b9060005260206000209060030201600101819055506002600181600181540180825580915050039060005260206000209050507f86b447e76b491834cb69eb2a23fccb480f36549da34f97ed20dd3c9a124425d66001808054905061066d9190611bd5565b858560405161067e93929190611a2c565b60405180910390a15b9392505050565b806000600180549050116106d7576040517f08c379a00000000000000000000000000000000000000000000000000000000081526004016106ce90611908565b60405180910390fd5b600180805490506106e89190611bd5565b81111561072a576040517f08c379a000000000000000000000000000000000000000000000000000000000815260040161072190611928565b60405180910390fd5b600015156107388333610fb8565b15151461077a576040517f08c379a000000000000000000000000000000000000000000000000000000000815260040161077190611948565b60405180910390fd5b6000600183815481106107b6577f4e487b7100000000000000000000000000000000000000000000000000000000600052603260045260246000fd5b90600052602060002090600302016002018054905060018481548110610805577f4e487b7100000000000000000000000000000000000000000000000000000000600052603260045260246000fd5b9060005260206000209060030201600101546108219190611bd5565b11610861576040517f08c379a000000000000000000000000000000000000000000000000000000000815260040161085890611968565b60405180910390fd5b6001828154811061089b577f4e487b7100000000000000000000000000000000000000000000000000000000600052603260045260246000fd5b9060005260206000209060030201600201339080600181540180825580915050600190039060005260206000200160009091909190916101000a81548173ffffffffffffffffffffffffffffffffffffffff021916908373ffffffffffffffffffffffffffffffffffffffff160217905550817f7534124779d4d1eaf9cabba5f94b2b281856aba81c295cde4c9e69483b04b8cc3360405161093d91906118a9565b60405180910390a25050565b60008054906101000a900473ffffffffffffffffffffffffffffffffffffffff1681565b806000600180549050116109b6576040517f08c379a00000000000000000000000000000000000000000000000000000000081526004016109ad90611908565b60405180910390fd5b600180805490506109c79190611bd5565b811115610a09576040517f08c379a0000000000000000000000000000000000000000000000000000000008152600401610a0090611928565b60405180910390fd5b60011515610a178333610fb8565b151514610a59576040517f08c379a0000000000000000000000000000000000000000000000000000000008152600401610a5090611988565b60405180910390fd5b60005b60018381548110610a96577f4e487b7100000000000000000000000000000000000000000000000000000000600052603260045260246000fd5b906000526020600020906003020160020180549050811015610c395760018381548110610aec577f4e487b7100000000000000000000000000000000000000000000000000000000600052603260045260246000fd5b90600052602060002090600302016002018181548110610b35577f4e487b7100000000000000000000000000000000000000000000000000000000600052603260045260246000fd5b9060005260206000200160009054906101000a900473ffffffffffffffffffffffffffffffffffffffff1673ffffffffffffffffffffffffffffffffffffffff163373ffffffffffffffffffffffffffffffffffffffff161415610c2657610be760018481548110610bd0577f4e487b7100000000000000000000000000000000000000000000000000000000600052603260045260246000fd5b906000526020600020906003020160020182611120565b7f8430f3edf8e599216e82e74036a3997b56dda6283ea97e28f330b76e914eef618333604051610c18929190611a03565b60405180910390a150610c3b565b8080610c3190611cb9565b915050610a5c565b505b5050565b60606000805b600180549050811015610d2157600060018281548110610c8e577f4e487b7100000000000000000000000000000000000000000000000000000000600052603260045260246000fd5b90600052602060002090600302016002018054905060018381548110610cdd577f4e487b7100000000000000000000000000000000000000000000000000000000600052603260045260246000fd5b906000526020600020906003020160010154610cf99190611bd5565b1115610d0e578180610d0a90611cb9565b9250505b8080610d1990611cb9565b915050610c45565b5060008167ffffffffffffffff811115610d64577f4e487b7100000000000000000000000000000000000000000000000000000000600052604160045260246000fd5b604051908082528060200260200182016040528015610d9d57816020015b610d8a61130b565b815260200190600190039081610d825790505b5090506000915060005b600180549050811015610faf57600060018281548110610df0577f4e487b7100000000000000000000000000000000000000000000000000000000600052603260045260246000fd5b90600052602060002090600302016002018054905060018381548110610e3f577f4e487b7100000000000000000000000000000000000000000000000000000000600052603260045260246000fd5b906000526020600020906003020160010154610e5b9190611bd5565b1115610f9c57604051806040016040528082815260200160018381548110610eac577f4e487b7100000000000000000000000000000000000000000000000000000000600052603260045260246000fd5b90600052602060002090600302016000018054610ec890611c87565b80601f0160208091040260200160405190810160405280929190818152602001828054610ef490611c87565b8015610f415780601f10610f1657610100808354040283529160200191610f41565b820191906000526020600020905b815481529060010190602001808311610f2457829003601f168201915b5050505050815250828481518110610f82577f4e487b7100000000000000000000000000000000000000000000000000000000600052603260045260246000fd5b60200260200101819052508280610f9890611cb9565b9350505b8080610fa790611cb9565b915050610da7565b50809250505090565b600080600090505b60018481548110610ffa577f4e487b7100000000000000000000000000000000000000000000000000000000600052603260045260246000fd5b9060005260206000209060030201600201805490508110156111145760018481548110611050577f4e487b7100000000000000000000000000000000000000000000000000000000600052603260045260246000fd5b90600052602060002090600302016002018181548110611099577f4e487b7100000000000000000000000000000000000000000000000000000000600052603260045260246000fd5b9060005260206000200160009054906101000a900473ffffffffffffffffffffffffffffffffffffffff1673ffffffffffffffffffffffffffffffffffffffff168373ffffffffffffffffffffffffffffffffffffffff16141561110157600191505061111a565b808061110c90611cb9565b915050610fc0565b50600090505b92915050565b81600183805490506111329190611bd5565b81548110611169577f4e487b7100000000000000000000000000000000000000000000000000000000600052603260045260246000fd5b9060005260206000200160009054906101000a900473ffffffffffffffffffffffffffffffffffffffff168282815481106111cd577f4e487b7100000000000000000000000000000000000000000000000000000000600052603260045260246000fd5b9060005260206000200160006101000a81548173ffffffffffffffffffffffffffffffffffffffff021916908373ffffffffffffffffffffffffffffffffffffffff1602179055508180548061124c577f4e487b7100000000000000000000000000000000000000000000000000000000600052603160045260246000fd5b6001900381819060005260206000200160006101000a81549073ffffffffffffffffffffffffffffffffffffffff021916905590555050565b82805461129190611c87565b90600052602060002090601f0160209004810192826112b357600085556112fa565b82601f106112cc57803560ff19168380011785556112fa565b828001600101855582156112fa579182015b828111156112f95782358255916020019190600101906112de565b5b5090506113079190611325565b5090565b604051806040016040528060008152602001606081525090565b5b8082111561133e576000816000905550600101611326565b5090565b60008083601f84011261135457600080fd5b8235905067ffffffffffffffff81111561136d57600080fd5b60208301915083600182028301111561138557600080fd5b9250929050565b60008135905061139b81611f9a565b92915050565b6000806000604084860312156113b657600080fd5b600084013567ffffffffffffffff8111156113d057600080fd5b6113dc86828701611342565b935093505060206113ef8682870161138c565b9150509250925092565b60006020828403121561140b57600080fd5b60006114198482850161138c565b91505092915050565b600061142e8383611462565b60208301905092915050565b600061144683836117c7565b905092915050565b600061145a8383611804565b905092915050565b61146b81611c09565b82525050565b61147a81611c09565b82525050565b600061148b82611acc565b6114958185611b1f565b93506114a083611a87565b8060005b838110156114d15781516114b88882611422565b97506114c383611af8565b9250506001810190506114a4565b5085935050505092915050565b60006114e982611ad7565b6114f38185611b30565b93508360208202850161150585611a97565b8060005b858110156115415784840389528151611522858261143a565b945061152d83611b05565b925060208a01995050600181019050611509565b50829750879550505050505092915050565b600061155e82611ae2565b6115688185611b41565b93508360208202850161157a85611aa7565b8060005b858110156115b65784840389528151611597858261144e565b94506115a283611b12565b925060208a0199505060018101905061157e565b50829750879550505050505092915050565b60006115d48385611b63565b93506115e1838584611c45565b6115ea83611d60565b840190509392505050565b60006116018385611b74565b935061160e838584611c45565b82840190509392505050565b600061162582611aed565b61162f8185611b52565b935061163f818560208601611c54565b61164881611d60565b840191505092915050565b6000815461166081611c87565b61166a8186611b74565b945060018216600081146116855760018114611696576116c9565b60ff198316865281860193506116c9565b61169f85611ab7565b60005b838110156116c1578154818901526001820191506020810190506116a2565b838801955050505b50505092915050565b60006116df602383611b63565b91506116ea82611d71565b604082019050919050565b6000611702603083611b63565b915061170d82611dc0565b604082019050919050565b6000611725603683611b63565b915061173082611e0f565b604082019050919050565b6000611748603483611b63565b915061175382611e5e565b604082019050919050565b600061176b602683611b63565b915061177682611ead565b604082019050919050565b600061178e602583611b63565b915061179982611efc565b604082019050919050565b60006117b1602283611b63565b91506117bc82611f4b565b604082019050919050565b60006040830160008301516117df600086018261185b565b50602083015184820360208601526117f7828261161a565b9150508091505092915050565b60006060830160008301518482036000860152611821828261161a565b9150506020830151611836602086018261185b565b506040830151848203604086015261184e8282611480565b9150508091505092915050565b61186481611c3b565b82525050565b61187381611c3b565b82525050565b60006118868284866115f5565b91508190509392505050565b600061189e8284611653565b915081905092915050565b60006020820190506118be6000830184611471565b92915050565b600060208201905081810360008301526118de81846114de565b905092915050565b600060208201905081810360008301526119008184611553565b905092915050565b60006020820190508181036000830152611921816116d2565b9050919050565b60006020820190508181036000830152611941816116f5565b9050919050565b6000602082019050818103600083015261196181611718565b9050919050565b600060208201905081810360008301526119818161173b565b9050919050565b600060208201905081810360008301526119a18161175e565b9050919050565b600060208201905081810360008301526119c181611781565b9050919050565b600060208201905081810360008301526119e1816117a4565b9050919050565b60006020820190506119fd600083018461186a565b92915050565b6000604082019050611a18600083018561186a565b611a256020830184611471565b9392505050565b6000604082019050611a41600083018661186a565b8181036020830152611a548184866115c8565b9050949350505050565b6000604082019050611a73600083018561186a565b611a80602083018461186a565b9392505050565b6000819050602082019050919050565b6000819050602082019050919050565b6000819050602082019050919050565b60008190508160005260206000209050919050565b600081519050919050565b600081519050919050565b600081519050919050565b600081519050919050565b6000602082019050919050565b6000602082019050919050565b6000602082019050919050565b600082825260208201905092915050565b600082825260208201905092915050565b600082825260208201905092915050565b600082825260208201905092915050565b600082825260208201905092915050565b600081905092915050565b6000611b8a82611c3b565b9150611b9583611c3b565b9250827fffffffffffffffffffffffffffffffffffffffffffffffffffffffffffffffff03821115611bca57611bc9611d02565b5b828201905092915050565b6000611be082611c3b565b9150611beb83611c3b565b925082821015611bfe57611bfd611d02565b5b828203905092915050565b6000611c1482611c1b565b9050919050565b600073ffffffffffffffffffffffffffffffffffffffff82169050919050565b6000819050919050565b82818337600083830152505050565b60005b83811015611c72578082015181840152602081019050611c57565b83811115611c81576000848401525b50505050565b60006002820490506001821680611c9f57607f821691505b60208210811415611cb357611cb2611d31565b5b50919050565b6000611cc482611c3b565b91507fffffffffffffffffffffffffffffffffffffffffffffffffffffffffffffffff821415611cf757611cf6611d02565b5b600182019050919050565b7f4e487b7100000000000000000000000000000000000000000000000000000000600052601160045260246000fd5b7f4e487b7100000000000000000000000000000000000000000000000000000000600052602260045260246000fd5b6000601f19601f8301169050919050565b7f546865206c69627261727920686173206e6f20626f6f6b732063757272656e7460008201527f6c792e0000000000000000000000000000000000000000000000000000000000602082015250565b7f426f6f6b2077697468207468697320494420646f6573206e6f7420657869737460008201527f2074686520636f6c6c656374696f6e2e00000000000000000000000000000000602082015250565b7f426f6f6b206d7573742062652072657475726e6564206265666f72652069742060008201527f63616e20626520626f72726f77656420616761696e2e00000000000000000000602082015250565b7f546865726520617265206e6f20636f70696573206f662074686520626f6f6b2060008201527f63757272656e746c7920617661696c61626c652e000000000000000000000000602082015250565b7f596f7520646f206e6f742068617665207468697320626f6f6b206f7574206f6e60008201527f206c6f616e2e0000000000000000000000000000000000000000000000000000602082015250565b7f436f6e747261637420776173206e6f742063616c6c656420627920746865206f60008201527f776e65722e000000000000000000000000000000000000000000000000000000602082015250565b7f416464206174206c65617374206f6e6520636f7079206f662074686520626f6f60008201527f6b2e000000000000000000000000000000000000000000000000000000000000602082015250565b611fa381611c3b565b8114611fae57600080fd5b5056fea26469706673582212206857630a3de05e08565441a318fb0e68f4d4189006831fb4e72d17d48eeff7ac64736f6c63430008040033",
  "linkReferences": {},
  "deployedLinkReferences": {}
}