{
  "_format": "hh-sol-artifact-1",
  "contractName": "Library",
  "sourceName": "contracts/Library.sol",
  "abi": [
    {
      "anonymous": false,
      "inputs": [
        {
          "indexed": true,
          "internalType": "uint256",
          "name": "id",
          "type": "uint256"
        },
        {
          "indexed": false,
          "internalType": "address",
          "name": "borrower",
          "type": "address"
        }
      ],
      "name": "BookBorrowed",
      "type": "event"
    },
    {
      "anonymous": false,
      "inputs": [
        {
          "indexed": false,
          "internalType": "uint256",
          "name": "id",
          "type": "uint256"
        },
        {
          "indexed": false,
          "internalType": "address",
          "name": "borrower",
          "type": "address"
        }
      ],
      "name": "BookReturned",
      "type": "event"
    },
    {
      "anonymous": false,
      "inputs": [
        {
          "indexed": false,
          "internalType": "uint256",
          "name": "id",
          "type": "uint256"
        },
        {
          "indexed": false,
          "internalType": "string",
          "name": "title",
          "type": "string"
        }
      ],
      "name": "NewBookAdded",
      "type": "event"
    },
    {
      "anonymous": false,
      "inputs": [
        {
          "indexed": false,
          "internalType": "uint256",
          "name": "id",
          "type": "uint256"
        },
        {
          "indexed": false,
          "internalType": "uint256",
          "name": "copies",
          "type": "uint256"
        }
      ],
      "name": "NewCopiesAdded",
      "type": "event"
    },
    {
      "inputs": [
        {
          "internalType": "string",
          "name": "_title",
          "type": "string"
        },
        {
          "internalType": "uint256",
          "name": "_copies",
          "type": "uint256"
        }
      ],
      "name": "addBook",
      "outputs": [],
      "stateMutability": "nonpayable",
      "type": "function"
    },
    {
      "inputs": [
        {
          "internalType": "uint256",
          "name": "_id",
          "type": "uint256"
        }
      ],
      "name": "borrowBook",
      "outputs": [],
      "stateMutability": "nonpayable",
      "type": "function"
    },
    {
      "inputs": [],
      "name": "getAvailableBooks",
      "outputs": [
        {
          "components": [
            {
              "internalType": "uint256",
              "name": "id",
              "type": "uint256"
            },
            {
              "internalType": "string",
              "name": "title",
              "type": "string"
            }
          ],
          "internalType": "struct Library.AvailableBook[]",
          "name": "",
          "type": "tuple[]"
        }
      ],
      "stateMutability": "view",
      "type": "function"
    },
    {
      "inputs": [],
      "name": "owner",
      "outputs": [
        {
          "internalType": "address",
          "name": "",
          "type": "address"
        }
      ],
      "stateMutability": "view",
      "type": "function"
    },
    {
      "inputs": [
        {
          "internalType": "uint256",
          "name": "_id",
          "type": "uint256"
        }
      ],
      "name": "returnBook",
      "outputs": [],
      "stateMutability": "nonpayable",
      "type": "function"
    }
  ],
  "bytecode": "0x608060405234801561001057600080fd5b50336000806101000a81548173ffffffffffffffffffffffffffffffffffffffff021916908373ffffffffffffffffffffffffffffffffffffffff160217905550611be2806100606000396000f3fe608060405234801561001057600080fd5b50600436106100575760003560e01c8063637a38721461005c5780637e490a9e146100785780638da5cb5b14610094578063ca5140c9146100b2578063d6c084d9146100ce575b600080fd5b610076600480360381019061007191906111b0565b6100ec565b005b610092600480360381019061008d9190611208565b61049d565b005b61009c610758565b6040516100a99190611553565b60405180910390f35b6100cc60048036038101906100c79190611208565b61077c565b005b6100d6610a4e565b6040516100e3919061156e565b60405180910390f35b3373ffffffffffffffffffffffffffffffffffffffff1660008054906101000a900473ffffffffffffffffffffffffffffffffffffffff1673ffffffffffffffffffffffffffffffffffffffff161461017a576040517f08c379a000000000000000000000000000000000000000000000000000000000815260040161017190611630565b60405180910390fd5b600081116101bd576040517f08c379a00000000000000000000000000000000000000000000000000000000081526004016101b490611650565b60405180910390fd5b60005b6001805490508110156103655783836040516020016101e0929190611523565b6040516020818303038152906040528051906020012060018281548110610230577f4e487b7100000000000000000000000000000000000000000000000000000000600052603260045260246000fd5b9060005260206000209060030201600001604051602001610251919061153c565b6040516020818303038152906040528051906020012014156103525781600182815481106102a8577f4e487b7100000000000000000000000000000000000000000000000000000000600052603260045260246000fd5b9060005260206000209060030201600101546102c4919061177a565b600182815481106102fe577f4e487b7100000000000000000000000000000000000000000000000000000000600052603260045260246000fd5b9060005260206000209060030201600101819055507f4e7fbcc359970a72cdad1ece1300b8b8d9a1a63b3e0fcce89c4db27bcb4c2cf881836040516103449291906116cb565b60405180910390a150610498565b808061035d906118b4565b9150506101c0565b5060018081600181540180825580915050039060005260206000209050508282600180808054905061039791906117d0565b815481106103ce577f4e487b7100000000000000000000000000000000000000000000000000000000600052603260045260246000fd5b906000526020600020906003020160000191906103ec929190611094565b5080600180808054905061040091906117d0565b81548110610437577f4e487b7100000000000000000000000000000000000000000000000000000000600052603260045260246000fd5b9060005260206000209060030201600101819055507f86b447e76b491834cb69eb2a23fccb480f36549da34f97ed20dd3c9a124425d66001808054905061047e91906117d0565b848460405161048f93929190611699565b60405180910390a15b505050565b806000600180549050116104e6576040517f08c379a00000000000000000000000000000000000000000000000000000000081526004016104dd90611590565b60405180910390fd5b600180805490506104f791906117d0565b811115610539576040517f08c379a0000000000000000000000000000000000000000000000000000000008152600401610530906115b0565b60405180910390fd5b600015156105478333610dc7565b151514610589576040517f08c379a0000000000000000000000000000000000000000000000000000000008152600401610580906115d0565b60405180910390fd5b6000600183815481106105c5577f4e487b7100000000000000000000000000000000000000000000000000000000600052603260045260246000fd5b90600052602060002090600302016002018054905060018481548110610614577f4e487b7100000000000000000000000000000000000000000000000000000000600052603260045260246000fd5b90600052602060002090600302016001015461063091906117d0565b11610670576040517f08c379a0000000000000000000000000000000000000000000000000000000008152600401610667906115f0565b60405180910390fd5b600182815481106106aa577f4e487b7100000000000000000000000000000000000000000000000000000000600052603260045260246000fd5b9060005260206000209060030201600201339080600181540180825580915050600190039060005260206000200160009091909190916101000a81548173ffffffffffffffffffffffffffffffffffffffff021916908373ffffffffffffffffffffffffffffffffffffffff160217905550817f7534124779d4d1eaf9cabba5f94b2b281856aba81c295cde4c9e69483b04b8cc3360405161074c9190611553565b60405180910390a25050565b60008054906101000a900473ffffffffffffffffffffffffffffffffffffffff1681565b806000600180549050116107c5576040517f08c379a00000000000000000000000000000000000000000000000000000000081526004016107bc90611590565b60405180910390fd5b600180805490506107d691906117d0565b811115610818576040517f08c379a000000000000000000000000000000000000000000000000000000000815260040161080f906115b0565b60405180910390fd5b600115156108268333610dc7565b151514610868576040517f08c379a000000000000000000000000000000000000000000000000000000000815260040161085f90611610565b60405180910390fd5b60005b600183815481106108a5577f4e487b7100000000000000000000000000000000000000000000000000000000600052603260045260246000fd5b906000526020600020906003020160020180549050811015610a4857600183815481106108fb577f4e487b7100000000000000000000000000000000000000000000000000000000600052603260045260246000fd5b90600052602060002090600302016002018181548110610944577f4e487b7100000000000000000000000000000000000000000000000000000000600052603260045260246000fd5b9060005260206000200160009054906101000a900473ffffffffffffffffffffffffffffffffffffffff1673ffffffffffffffffffffffffffffffffffffffff163373ffffffffffffffffffffffffffffffffffffffff161415610a35576109f6600184815481106109df577f4e487b7100000000000000000000000000000000000000000000000000000000600052603260045260246000fd5b906000526020600020906003020160020182610f2f565b7f8430f3edf8e599216e82e74036a3997b56dda6283ea97e28f330b76e914eef618333604051610a27929190611670565b60405180910390a150610a4a565b8080610a40906118b4565b91505061086b565b505b5050565b60606000805b600180549050811015610b3057600060018281548110610a9d577f4e487b7100000000000000000000000000000000000000000000000000000000600052603260045260246000fd5b90600052602060002090600302016002018054905060018381548110610aec577f4e487b7100000000000000000000000000000000000000000000000000000000600052603260045260246000fd5b906000526020600020906003020160010154610b0891906117d0565b1115610b1d578180610b19906118b4565b9250505b8080610b28906118b4565b915050610a54565b5060008167ffffffffffffffff811115610b73577f4e487b7100000000000000000000000000000000000000000000000000000000600052604160045260246000fd5b604051908082528060200260200182016040528015610bac57816020015b610b9961111a565b815260200190600190039081610b915790505b5090506000915060005b600180549050811015610dbe57600060018281548110610bff577f4e487b7100000000000000000000000000000000000000000000000000000000600052603260045260246000fd5b90600052602060002090600302016002018054905060018381548110610c4e577f4e487b7100000000000000000000000000000000000000000000000000000000600052603260045260246000fd5b906000526020600020906003020160010154610c6a91906117d0565b1115610dab57604051806040016040528082815260200160018381548110610cbb577f4e487b7100000000000000000000000000000000000000000000000000000000600052603260045260246000fd5b90600052602060002090600302016000018054610cd790611882565b80601f0160208091040260200160405190810160405280929190818152602001828054610d0390611882565b8015610d505780601f10610d2557610100808354040283529160200191610d50565b820191906000526020600020905b815481529060010190602001808311610d3357829003601f168201915b5050505050815250828481518110610d91577f4e487b7100000000000000000000000000000000000000000000000000000000600052603260045260246000fd5b60200260200101819052508280610da7906118b4565b9350505b8080610db6906118b4565b915050610bb6565b50809250505090565b600080600090505b60018481548110610e09577f4e487b7100000000000000000000000000000000000000000000000000000000600052603260045260246000fd5b906000526020600020906003020160020180549050811015610f235760018481548110610e5f577f4e487b7100000000000000000000000000000000000000000000000000000000600052603260045260246000fd5b90600052602060002090600302016002018181548110610ea8577f4e487b7100000000000000000000000000000000000000000000000000000000600052603260045260246000fd5b9060005260206000200160009054906101000a900473ffffffffffffffffffffffffffffffffffffffff1673ffffffffffffffffffffffffffffffffffffffff168373ffffffffffffffffffffffffffffffffffffffff161415610f10576001915050610f29565b8080610f1b906118b4565b915050610dcf565b50600090505b92915050565b8160018380549050610f4191906117d0565b81548110610f78577f4e487b7100000000000000000000000000000000000000000000000000000000600052603260045260246000fd5b9060005260206000200160009054906101000a900473ffffffffffffffffffffffffffffffffffffffff16828281548110610fdc577f4e487b7100000000000000000000000000000000000000000000000000000000600052603260045260246000fd5b9060005260206000200160006101000a81548173ffffffffffffffffffffffffffffffffffffffff021916908373ffffffffffffffffffffffffffffffffffffffff1602179055508180548061105b577f4e487b7100000000000000000000000000000000000000000000000000000000600052603160045260246000fd5b6001900381819060005260206000200160006101000a81549073ffffffffffffffffffffffffffffffffffffffff021916905590555050565b8280546110a090611882565b90600052602060002090601f0160209004810192826110c25760008555611109565b82601f106110db57803560ff1916838001178555611109565b82800160010185558215611109579182015b828111156111085782358255916020019190600101906110ed565b5b5090506111169190611134565b5090565b604051806040016040528060008152602001606081525090565b5b8082111561114d576000816000905550600101611135565b5090565b60008083601f84011261116357600080fd5b8235905067ffffffffffffffff81111561117c57600080fd5b60208301915083600182028301111561119457600080fd5b9250929050565b6000813590506111aa81611b95565b92915050565b6000806000604084860312156111c557600080fd5b600084013567ffffffffffffffff8111156111df57600080fd5b6111eb86828701611151565b935093505060206111fe8682870161119b565b9150509250925092565b60006020828403121561121a57600080fd5b60006112288482850161119b565b91505092915050565b600061123d83836114c8565b905092915050565b61124e81611804565b82525050565b600061125f82611719565b611269818561173c565b93508360208202850161127b856116f4565b8060005b858110156112b757848403895281516112988582611231565b94506112a38361172f565b925060208a0199505060018101905061127f565b50829750879550505050505092915050565b60006112d5838561175e565b93506112e2838584611840565b6112eb8361195b565b840190509392505050565b6000611302838561176f565b935061130f838584611840565b82840190509392505050565b600061132682611724565b611330818561174d565b935061134081856020860161184f565b6113498161195b565b840191505092915050565b6000815461136181611882565b61136b818661176f565b945060018216600081146113865760018114611397576113ca565b60ff198316865281860193506113ca565b6113a085611704565b60005b838110156113c2578154818901526001820191506020810190506113a3565b838801955050505b50505092915050565b60006113e060238361175e565b91506113eb8261196c565b604082019050919050565b600061140360308361175e565b915061140e826119bb565b604082019050919050565b600061142660368361175e565b915061143182611a0a565b604082019050919050565b600061144960348361175e565b915061145482611a59565b604082019050919050565b600061146c60268361175e565b915061147782611aa8565b604082019050919050565b600061148f60258361175e565b915061149a82611af7565b604082019050919050565b60006114b260228361175e565b91506114bd82611b46565b604082019050919050565b60006040830160008301516114e06000860182611505565b50602083015184820360208601526114f8828261131b565b9150508091505092915050565b61150e81611836565b82525050565b61151d81611836565b82525050565b60006115308284866112f6565b91508190509392505050565b60006115488284611354565b915081905092915050565b60006020820190506115686000830184611245565b92915050565b600060208201905081810360008301526115888184611254565b905092915050565b600060208201905081810360008301526115a9816113d3565b9050919050565b600060208201905081810360008301526115c9816113f6565b9050919050565b600060208201905081810360008301526115e981611419565b9050919050565b600060208201905081810360008301526116098161143c565b9050919050565b600060208201905081810360008301526116298161145f565b9050919050565b6000602082019050818103600083015261164981611482565b9050919050565b60006020820190508181036000830152611669816114a5565b9050919050565b60006040820190506116856000830185611514565b6116926020830184611245565b9392505050565b60006040820190506116ae6000830186611514565b81810360208301526116c18184866112c9565b9050949350505050565b60006040820190506116e06000830185611514565b6116ed6020830184611514565b9392505050565b6000819050602082019050919050565b60008190508160005260206000209050919050565b600081519050919050565b600081519050919050565b6000602082019050919050565b600082825260208201905092915050565b600082825260208201905092915050565b600082825260208201905092915050565b600081905092915050565b600061178582611836565b915061179083611836565b9250827fffffffffffffffffffffffffffffffffffffffffffffffffffffffffffffffff038211156117c5576117c46118fd565b5b828201905092915050565b60006117db82611836565b91506117e683611836565b9250828210156117f9576117f86118fd565b5b828203905092915050565b600061180f82611816565b9050919050565b600073ffffffffffffffffffffffffffffffffffffffff82169050919050565b6000819050919050565b82818337600083830152505050565b60005b8381101561186d578082015181840152602081019050611852565b8381111561187c576000848401525b50505050565b6000600282049050600182168061189a57607f821691505b602082108114156118ae576118ad61192c565b5b50919050565b60006118bf82611836565b91507fffffffffffffffffffffffffffffffffffffffffffffffffffffffffffffffff8214156118f2576118f16118fd565b5b600182019050919050565b7f4e487b7100000000000000000000000000000000000000000000000000000000600052601160045260246000fd5b7f4e487b7100000000000000000000000000000000000000000000000000000000600052602260045260246000fd5b6000601f19601f8301169050919050565b7f546865206c69627261727920686173206e6f20626f6f6b732063757272656e7460008201527f6c792e0000000000000000000000000000000000000000000000000000000000602082015250565b7f426f6f6b2077697468207468697320494420646f6573206e6f7420657869737460008201527f2074686520636f6c6c656374696f6e2e00000000000000000000000000000000602082015250565b7f426f6f6b206d7573742062652072657475726e6564206265666f72652069742060008201527f63616e20626520626f72726f77656420616761696e2e00000000000000000000602082015250565b7f546865726520617265206e6f20636f70696573206f662074686520626f6f6b2060008201527f63757272656e746c7920617661696c61626c652e000000000000000000000000602082015250565b7f596f7520646f206e6f742068617665207468697320626f6f6b206f7574206f6e60008201527f206c6f616e2e0000000000000000000000000000000000000000000000000000602082015250565b7f436f6e747261637420776173206e6f742063616c6c656420627920746865206f60008201527f776e65722e000000000000000000000000000000000000000000000000000000602082015250565b7f416464206174206c65617374206f6e6520636f7079206f662074686520626f6f60008201527f6b2e000000000000000000000000000000000000000000000000000000000000602082015250565b611b9e81611836565b8114611ba957600080fd5b5056fea2646970667358221220941d14a88c156a9ce25786e1f956b3ecb4fdd9e8ca796aa1939c6bb26d9832ef64736f6c63430008040033",
  "linkReferences": {},
  "deployedLinkReferences": {}
}